S02700004F6E2064656D616E642054726166666963206C6967687420636F6E74726F6C2E737265637F
S11300000C942A000C94B3010C943C000C943C0016
S11300100C943C000C943C000C943C000C943C006C
S11300200C943C000C943C000C945A030C94310343
S11300300C943C000C943C000C943C000C943C004C
S11300400C943C000C943C000C943C000C943C003C
S11300500C943C0011241FBECFE5D8E0DEBFCDBF19
S113006020E0A0E6B0E001C01D92A536B207E1F79A
S11300700E94F2010C94C1030C9400008091620070
S11300808F5F809362000895789464E482E00E9414
S1130090D60185B7836085BF8BB780648BBF61E46D
S11300A082E00E94DD0161E481E00E94DD0161E4FF
S11300B080E00E94DD0162E482E00E94DD0162E4EE
S11300C081E00E94DD0162E480E00E94DD01089588
S11300D01F93CF93DF9300D000D0CDB7DEB7182F96
S11300E0198285E08A838CE08B831C82CE01019681
S11300F00E9483038EE390E00E94BC03CE0101962C
S11301000E94970304C080916100813061F02091C6
S1130110620030E0812F90E0880F991F880F991FAB
S11301202817390784F30E94B403109262000F90D9
S11301300F900F900F90DF91CF911F91089561E47C
S113014082E00E94E40185E00E94680061E482E0AC
S11301500E94EB01089561E480E00E94E40185E0DF
S11301600E94680061E480E00E94EB01089561E46C
S113017080E00E94E40162E482E00E94E40185E000
S11301800E94680061E480E00E94EB01089562E44B
S113019080E00E94E40161E482E00E94E40185E0E1
S11301A00E94680061E482E00E94EB0162E480E066
S11301B00E94EB0108951F93CF93DF9300D000D0EA
S11301C0CDB7DEB7182F198285E08A838CE08B8344
S11301D01C82CE0101960E9483038EE390E00E946C
S11301E0BC03CE0101960E94970304C08091610074
S11301F0813051F02091620030E0812F90E0880F2F
S1130200991F2817390794F30E94B40310926200CF
S11302100F900F900F900F90DF91CF911F91089541
S1130220CF93C0E013C061E481E00E94E40181E067
S11302300E94DB0061E481E00E94EB0181E00E9406
S1130240DB0080916100813019F0CF5FC53058F335
S1130250CF910895CF93DF93EC0118820E949F0001
S1130260809161008130C1F081E088830E94100197
S113027080916100813081F082E088830E94AB002C
S113028080916100813041F081E088830E941001F7
S113029080916100813009F7DF91CF910895CF9368
S11302A062E480E00E94E401C0E00FC061E481E008
S11302B00E94E40181E00E94DB0061E481E00E948D
S11302C0EB0181E00E94DB00CF5FC53078F362E48C
S11302D080E00E94EB01CF910895CF93C0E017C056
S11302E062E481E00E94E40161E481E00E94E401AF
S11302F081E00E94DB0062E481E00E94EB0161E4A2
S113030081E00E94EB0181E00E94DB00CF5FC530F9
S113031038F3CF9108951092610021E0209360009A
S1130320FC018081813059F018F0823079F010C0DE
S11303300E94C7000E946D010E94B70009C00E947C
S11303404F010E946D010E94B70002C00E94B700D5
S11303500E946D0162E482E00E94EB010E94C700EA
S11303601092600008951F920F920FB60F921124FD
S11303708F9380916000811103C081E080936100BC
S11303808F910F900FBE0F901F901895CF93DF930E
S11303901F92CDB7DEB70E944400CE0101960E94A1
S11303A02A01CE0101960E948B01F7CF40E00E9402
S11303B0F701813009F080E0089541E00E94F701DF
S11303C0813009F080E0089541E00E949402813078
S11303D009F080E0089540E00E949402813009F021
S11303E080E008950E94C60180E090E008956234A0
S11303F069F118F4613441F08DC0633409F448C0E4
S1130400643409F466C086C041110FC04AB321E0C8
S113041030E0B90102C0660F771F8A95E2F7CB017D
S1130420809584238ABB81E00895413009F074C02B
S11304304AB321E030E0B90102C0660F771F8A9504
S1130440E2F7CB01842B8ABB81E0089541110FC0F0
S113045047B321E030E0B90102C0660F771F8A95E7
S1130460E2F7CB018095842387BB81E00895413076
S113047009F054C047B321E030E0B90102C0660F6F
S1130480771F8A95E2F7CB01842B87BB81E008951F
S113049041110FC044B321E030E0B90102C0660F3E
S11304A0771F8A95E2F7CB018095842384BB81E092
S11304B008954130A9F544B321E030E0B90102C008
S11304C0660F771F8A95E2F7CB01842B84BB81E00A
S11304D0089541110FC041B321E030E0B90102C0D9
S11304E0660F771F8A95E2F7CB018095842381BB41
S11304F081E008954130B1F441B321E030E0B90125
S113050002C0660F771F8A95E2F7CB01842B81BB6B
S113051081E0089581E0089580E0089580E00895E1
S113052080E0089580E00895623469F118F461343C
S113053041F08DC0633409F448C0643409F466C0E2
S113054086C041110FC04BB321E030E0B90102C0B5
S1130550660F771F8A95E2F7CB01809584238BBBC6
S113056081E00895413009F074C04BB321E030E0DC
S1130570B90102C0660F771F8A95E2F7CB01842B7D
S11305808BBB81E0089541110FC048B321E030E0F6
S1130590B90102C0660F771F8A95E2F7CB018095F7
S11305A0842388BB81E00895413009F054C048B3E6
S11305B021E030E0B90102C0660F771F8A95E2F7A7
S11305C0CB01842B88BB81E0089541110FC045B352
S11305D021E030E0B90102C0660F771F8A95E2F787
S11305E0CB018095842385BB81E008954130A9F532
S11305F045B321E030E0B90102C0660F771F8A9548
S1130600E2F7CB01842B85BB81E0089541110FC033
S113061042B321E030E0B90102C0660F771F8A952A
S1130620E2F7CB018095842382BB81E008954130B9
S1130630B1F442B321E030E0B90102C0660F771F84
S11306408A95E2F7CB01842B82BB81E0089581E097
S1130650089580E0089580E0089580E0089580E0A2
S113066008951F920F920FB60F9211242F933F9368
S11306704F935F936F937F938F939F93AF93BF93A6
S1130680EF93FF93E0916300F0916400309709F0D9
S11306900995FF91EF91BF91AF919F918F917F91B8
S11306A06F915F914F913F912F910F900FBE0F90DB
S11306B01F9018951F920F920FB60F9211242F932B
S11306C03F934F935F936F937F938F939F93AF93D6
S11306D0BF93EF93FF93E0916300F0916400309730
S11306E009F00995FF91EF91BF91AF919F918F917F
S11306F07F916F915F914F913F912F910F900FBE1A
S11307000F901F901895FC018081882319F0813087
S113071031F00BC080E883BF81E089BF089588E889
S113072083BF82E089BF81E0089580E00895FC01E1
S11307308081882319F0813059F014C0828182BFEE
S113074093B78181987F8770892B83BF81E0089557
S113075083818CBF93B78181987F8770892B83BFF6
S113076081E0089580E0089513BE89B78E7F89BF24
S113077089B78D7F89BF0895909364008093630047
S10907800895F894FFCF78
S9030000FC
